:030000000200E615
:0600060075210002000359
:030003000200DC1C
:10000C00740FB537047582FF22AF370FE537F4FE56
:10001C005F42378537387F00E538C313FE8E386072
:10002C00030F80F474046FC454F0F53A858139855C
:10003C003A818F06EEC40354F8F53BEF2432F8A650
:10004C00818539818F8222C0E0C0F0C082C083C01C
:10005C00D0E5362432F8A681AE367F008E828F83AF
:10006C00A37508048F09120139AE828EF005F07E5B
:10007C00017F008006EE2EFEEF33FFD5F0F7AC3794
:10008C007D00EC5206ED5207EE4F6019AE367F0044
:10009C008E828F83A37508048F09120139AE82AF4B
:1000AC00838E368019AE367F008E828F83A37508BF
:1000BC00048F09120139AE82AF838E36809AE536F1
:1000CC002432F98781D0D0D083D082D0F0D0E022F6
:1000DC0075370112000C858236220200DC222222A6
:1000EC00E508450960467A01E50825E0F508E509CB
:1000FC00334012F509E5829508E583950940030A1A
:10010C0080E6C3E50913F509E50813F508C3E58294
:10011C009508F5F0E58395094005F58385F082C3D4
:10012C00E50913F509E50813F508DAE122C2D5E56E
:10013C008330E70DD2D5E4C39582F582E49583F53F
:10014C0083E50930E70BE4C39508F508E49509F558
:10015C00091200EC30D50BE4C39582F582E495834B
:03016C00F58322F6
:00000001FF
